:100000000C9461000C9473000C9473000C947300B6
:100010000C9473000C9473000C9473000C94730094
:100020000C9473000C9473000C9473000C94730084
:100030000C9473000C9473000C9473000C94730074
:100040000C9478010C9473000C9473000C9473005E
:100050000C9473000C9473000C9473000C94730054
:100060000C9473000C94730000000008000201005F
:100070000003040700000000000000000102040863
:100080001020408001020408102001020408102002
:10009000040404040404040402020202020203032E
:1000A00003030303000000002300260029000000D2
:1000B0000000250028002B0000000000240027007D
:1000C0002A0011241FBECFEFD8E0DEBFCDBF21E054
:1000D000A0E0B1E001C01D92AF30B207E1F70E948D
:1000E00069010C9425020C94000061E080E00E94FC
:1000F000D00060E081E00C94D00081E00E943F01DC
:10010000909301018093000120910201309103013D
:100110002130310599F4892B89F480910401909163
:100120000501019662E070E00E94FD0180930401E8
:1001300090930501682F80E00E94090180910001E1
:1001400090910101909303018093020108958330FF
:1001500081F028F4813099F08230A1F00895873041
:10016000A9F08830B9F08430D1F4809180008F7D7F
:1001700003C0809180008F7780938000089584B5BC
:100180008F7702C084B58F7D84BD08958091B000C3
:100190008F7703C08091B0008F7D8093B000089569
:1001A000CF93DF9390E0FC01E458FF4F2491FC01D2
:1001B000E057FF4F8491882349F190E0880F991F01
:1001C000FC01E854FF4FA591B49182559F4FFC016B
:1001D000C591D4919FB7611108C0F8948C91209576
:1001E00082238C93888182230AC0623051F4F89470
:1001F0008C91322F309583238C938881822B888336
:1002000004C0F8948C91822B8C939FBFDF91CF9187
:1002100008950F931F93CF93DF931F92CDB7DEB74F
:10022000282F30E0F901E859FF4F8491F901E45893
:10023000FF4F1491F901E057FF4F04910023C9F0DB
:10024000882321F069830E94A7006981E02FF0E0F4
:10025000EE0FFF1FE255FF4FA591B4919FB7F894A1
:100260008C91611103C01095812301C0812B8C9367
:100270009FBF0F90DF91CF911F910F910895CF9362
:10028000DF93282F30E0F901E859FF4F8491F901FD
:10029000E458FF4FD491F901E057FF4FC491CC23AC
:1002A00091F081110E94A700EC2FF0E0EE0FFF1FEC
:1002B000EC55FF4FA591B4912C912D2381E090E056
:1002C00021F480E002C080E090E0DF91CF910895BA
:1002D00008950E94C2010E9468010E947500C0E05A
:1002E000D0E00E947D002097E1F30E940000F9CF4A
:1002F0001F920F920FB60F9211242F933F938F935B
:100300009F93AF93BF938091070190910801A091B3
:100310000901B0910A013091060123E0230F2D3726
:1003200020F40196A11DB11D05C026E8230F0296F9
:10033000A11DB11D20930601809307019093080130
:10034000A0930901B0930A0180910B0190910C01D7
:10035000A0910D01B0910E010196A11DB11D8093D8
:100360000B0190930C01A0930D01B0930E01BF916E
:10037000AF919F918F913F912F910F900FBE0F9052
:100380001F901895789484B5826084BD84B581608F
:1003900084BD85B5826085BD85B5816085BDEEE68D
:1003A000F0E0808181608083E1E8F0E0108280816C
:1003B00082608083808181608083E0E8F0E08081DA
:1003C00081608083E1EBF0E0808184608083E0EBFA
:1003D000F0E0808181608083EAE7F0E080818460E2
:1003E000808380818260808380818160808380813E
:1003F000806880831092C100089597FB072E16F441
:10040000009407D077FD09D00E94110207FC05D0A7
:100410003EF4909581959F4F0895709561957F4F1B
:100420000895AA1BBB1B51E107C0AA1FBB1FA6173B
:10043000B70710F0A61BB70B881F991F5A95A9F78D
:0E04400080959095BC01CD010895F894FFCFF2
:107E0000112484B714BE81FFF0D085E080938100F7
:107E100082E08093C00088E18093C10086E0809377
:107E2000C20080E18093C4008EE0C9D0259A86E02C
:107E300020E33CEF91E0309385002093840096BBD3
:107E4000B09BFECF1D9AA8958150A9F7CC24DD24C4
:107E500088248394B5E0AB2EA1E19A2EF3E0BF2EE7
:107E6000A2D0813461F49FD0082FAFD0023811F036
:107E7000013811F484E001C083E08DD089C08234E0
:107E800011F484E103C0853419F485E0A6D080C0E4
:107E9000853579F488D0E82EFF2485D0082F10E0AE
:107EA000102F00270E291F29000F111F8ED06801E7
:107EB0006FC0863521F484E090D080E0DECF843638
:107EC00009F040C070D06FD0082F6DD080E0C81688
:107ED00080E7D80618F4F601B7BEE895C0E0D1E017
:107EE00062D089930C17E1F7F0E0CF16F0E7DF06D8
:107EF00018F0F601B7BEE89568D007B600FCFDCFD4
:107F0000A601A0E0B1E02C9130E011968C91119780
:107F100090E0982F8827822B932B1296FA010C0160
:107F200087BEE89511244E5F5F4FF1E0A038BF0790
:107F300051F7F601A7BEE89507B600FCFDCF97BE46
:107F4000E89526C08437B1F42ED02DD0F82E2BD052
:107F50003CD0F601EF2C8F010F5F1F4F84911BD097
:107F6000EA94F801C1F70894C11CD11CFA94CF0C13
:107F7000D11C0EC0853739F428D08EE10CD085E9AC
:107F80000AD08FE07ACF813511F488E018D01DD067
:107F900080E101D065CF982F8091C00085FFFCCF94
:107FA0009093C60008958091C00087FFFCCF809118
:107FB000C00084FD01C0A8958091C6000895E0E648
:107FC000F0E098E1908380830895EDDF803219F02E
:107FD00088E0F5DFFFCF84E1DECF1F93182FE3DFCA
:107FE0001150E9F7F2DF1F91089580E0E8DFEE27F6
:047FF000FF270994CA
:027FFE00040479
:0400000300007E007B
:00000001FF
